:020000040800F2
:100000006006002039020008750200087702000827
:10001000790200087B0200087D0200080000000051
:100020000000000000000000000000007F02000847
:100030008102000800000000830200088502000819
:10004000870200088702000887020008870200086C
:10005000870200088702000887020008870200085C
:10006000870200088702000887020008870200084C
:10007000870200088702000887020008870200083C
:10008000870200088702000887020008870200082C
:10009000870200088702000887020008870200081C
:1000A000870200088702000887020008870200080C
:1000B00087020008870200088702000887020008FC
:1000C00087020008870200088702000887020008EC
:1000D00087020008870200088702000887020008DC
:1000E00087020008870200088702000887020008CC
:1000F00087020008870200088702000887020008BC
:1001000087020008870200088702000887020008AB
:10011000870200088702000887020008870200089B
:10012000870200088702000887020008870200088B
:10013000870200088702000887020008870200087B
:10014000870200088702000887020008870200086B
:10015000870200088702000887020008870200085B
:10016000870200088702000887020008870200084B
:1001700087020008870200088702000800000000CC
:10018000870200088702000800F002F800F044F837
:1001900014A696E8000CB244B344DA4501D100F04D
:1001A0003BF8BAE80F000FA696E83000A5EB04056F
:1001B00004EB0607AAEB0704A7F101074FEA1515A0
:1001C0004FEA3414A4F10104AC4201D300F024F846
:1001D00013F0010F18BFFB1A43F0010300F001F800
:1001E000DBE71847A8090000B809000070470000C5
:1001F0000023002400250026103A28BF78C1FBD830
:10020000520728BF30C148BF0B6070471FB500F0D0
:10021000AFFC1FBD10B510BD00F053F81146FFF73D
:10022000F5FF00F0FDFB00F071F803B4FFF7F2FFFB
:1002300003BC00F079F8000016481749174B9942A3
:100240003CBF50F8042B41F8042BF8D314494FF06D
:1002500000028B4238BF43F8042BFAD3DFF8440086
:10026000016841F470010160BFF34F8FBFF36F8FDE
:100270000D480047FEE7FEE7FEE7FEE7FEE7FEE784
:10028000FEE7FEE7FEE7FEE708480949094A0A4B90
:10029000704700009C0B00080000002000000020B8
:1002A0006006002088ED00E0890100086000002061
:1002B0006006002060020020600200207047704746
:1002C0007047754600F02CF8AE4605006946534667
:1002D00020F00700854618B020B5FFF7D5FFBDE830
:1002E00020404FF000064FF000074FF000084FF09D
:1002F000000BAC46ACE8C009ACE8C009ACE8C009EA
:10030000ACE8C00921F007018D46704710B50446DE
:10031000AFF300802046BDE81040FFF786BF000025
:10032000004870470000002001491820ABBEFEE7DE
:100330002600020070470000B0B584B041F24C00C6
:10034000C4F202000168022241F01001016041F292
:100350000000C4F60000016821F0C00101600168DE
:1003600041F040010160416941F0080141614FF4F1
:100370001940ADF80A000DF10A01942000F0CCF804
:10038000002501950198B0F5C87F03DA0198013086
:100390000190F7E748F247000DF10A04ADF80A00B2
:1003A00094202146022200F0B7F84BF63230ADF827
:1003B0000A0094202146022200F0AEF843F63230C3
:1003C000ADF80A0094202146022200F0A5F89420FE
:1003D00021460222ADF80A5000F09EF804B0B0BDEC
:1003E00041F24C00C4F20200016841F002010160D8
:1003F00040F20040C4F60000016821F47041016041
:10040000016841F420410160C16821F47041C1607C
:10041000C16841F4A041C160416841F0C001416040
:10042000816821F470418160816841F420418160DC
:10043000016A21F07F410162016A41F08841016255
:100440007047000041F23800C4F20200016A41F432
:1004500000110162016D21F440510165016D41F40B
:1004600080510165016841F400110160016821F4C7
:100470000011016045F20040C4F20000016821F063
:1004800001010160016821F480510160016821F4DB
:1004900070610160016841F080010160016821F430
:1004A00080110160016821F40031016000210161C7
:1004B000016921F070410161016941F0E041016190
:1004C000016941F031010161016941F44451016167
:1004D000016941F460010161016941F47021016128
:1004E000816821F40041816048F252018160816895
:1004F00021F400418160416821F40061416041685C
:1005000041F000714160416841F40041416001687F
:1005100041F001010160704700294FF0FF0318BF4F
:10052000002A01D158B2704780B581B045F2184C0D
:10053000C4F2000CDCF800301B04FBD45CF814ECB3
:1005400049F60003CFF6004303EA0E0340EA0240F7
:10055000184400F500504CF8140C0020009000984E
:1005600090420BDADCF800008007FBD50098085CAD
:10057000CCF8100000980130F0E700BFDCF8000074
:1005800040065CBFDCF800005FEAC060F6D5DCF82E
:100590000000C00612D45CF8140C40F480404CF803
:1005A000140C00BFDCF800008006FBD5DCF804006A
:1005B000002340F02000CCF8040000E0FF2301B04D
:1005C000BDE8804058B2704741F24C00C4F20200CE
:1005D000016841F01001016041F20000C4F6000022
:1005E000016821F030010160016841F020010160E3
:1005F000416821F004014160816841F0300181606F
:10060000C16821F03001C160016A21F470610162AA
:10061000016A41F4506101627047000045F20440F4
:10062000C4F20100016821F400210160016841F475
:1006300080310160016841F4803101607047000041
:1006400080B582B00020ADF806000DF106019420BF
:100650000222FFF761FF4EF20130ADF806000DF106
:10066000060194200222FFF757FF49F60260ADF819
:1006700006000DF1060194200222FFF74DFF4AF615
:100680000470ADF806000DF1060194200222FFF778
:1006900043FF48F20510ADF806000DF10601942065
:1006A0000222FFF739FF48F20640ADF806000DF1CF
:1006B000060194200222FFF72FFF0720ADF8060065
:1006C0000DF1060194200222FFF726FF48F20810E0
:1006D000ADF806000DF1060194200222FFF71CFF81
:1006E00048F20910ADF806000DF10601942002222F
:1006F000FFF712FF0A20ADF806000DF10601942065
:100700000222FFF709FF0C20ADF806000DF10601EB
:1007100094200222FFF700FF46F20D00ADF806001C
:100720000DF1060194200222FFF7F6FE40F20E6062
:10073000ADF806000DF1060194200222FFF7ECFE51
:100740000F20ADF806000DF1060194200222FFF7FC
:10075000E3FE1420ADF806000DF1060194200222FC
:10076000FFF7DAFE1520ADF806000DF10601942022
:100770000222FFF7D1FE40F61A20ADF806000DF177
:10078000060194200222FFF7C7FE40F61B20ADF8B9
:1007900006000DF1060194200222FFF7BDFE1C2089
:1007A000ADF806000DF1060194200222FFF7B4FE19
:1007B0001D20ADF806000DF1060194200222FFF77E
:1007C000ABFE1E20ADF806000DF1060194200222BA
:1007D000FFF7A2FE40F61F70ADF806000DF106010E
:1007E00094200222FFF798FE4EF22050ADF806004A
:1007F0000DF1060194200222FFF78EFE4EF22150E9
:10080000ADF806000DF1060194200222FFF784FEE8
:100810002220ADF806000DF1060194200222FFF718
:100820007BFE2320ADF806000DF106019420022284
:10083000FFF772FE2420ADF806000DF106019420AA
:100840000222FFF769FE2520ADF806000DF1060132
:1008500094200222FFF760FE2620ADF806000DF17D
:10086000060194200222FFF757FE2720ADF806006C
:100870000DF1060194200222FFF74EFE47F6287084
:10088000ADF806000DF1060194200222FFF744FEA8
:100890004CF22900ADF806000DF106019420022269
:1008A000FFF73AFE2E20ADF806000DF10601942068
:1008B0000222FFF731FE2F20ADF806000DF10601F0
:1008C00094200222FFF728FE3020ADF806000DF13B
:1008D000060194200222FFF71FFE3120ADF806002A
:1008E0000DF1060194200222FFF716FE45F6347042
:1008F000ADF806000DF1060194200222FFF70CFE70
:1009000002B080BD42F20001C4F20201086820F08A
:10091000070008600A6841F2000042F00202C4F2D7
:1009200002000A60016841F48071016001684905B4
:10093000FCD5416821F0F8514160416841F0805197
:100940004160016821F08071016000BF0168890188
:10095000FCD4C168142221F00301C160C16841F0D8
:100960000201C160C16862F30E21C160C168012249
:1009700062F30611C160C16821F0C061C160C16845
:1009800041F08071C160016841F08071016000BF79
:1009900001688901FCD5816821F0030181608168CB
:1009A00041F00301816000BF816801F00C010C2956
:1009B000FAD1816821F0F0018160816821F4E06161
:1009C0008160816821F460518160016821F080615B
:1009D000016000BF01684901FCD4016921F4FE41B6
:1009E0000161016941F4C0510161016941F40031C3
:1009F0000161016941F480310161016841F0806168
:100A0000016000BF01684901FCD5D0F8881021F4CD
:100A10004001C0F88810016E41F400110166704772
:100A2000FFF770FFFFF7DCFCFFF70CFDFFF7CCFDD5
:100A3000FFF7F4FDFFF780FCFFF702FE00F002F87D
:100A4000FCE700002DE9F04182B041F21C004DF2BC
:100A50000044ADF8040001A994200222C0F2300441
:100A6000FFF75AFD41F61D4801A994200222ADF876
:100A70000480FFF751FD4CF21E0701A994200222C9
:100A8000ADF80470FFF748FD002601960198A042DA
:100A900003DA019801300190F8E742F21C0046F6B3
:100AA0000025ADF8040001A994200222C0F2180527
:100AB000FFF732FD01A994200222ADF80480FFF770
:100AC0002BFD01A994200222ADF80470FFF724FD4C
:100AD000019600BF0198A84203DA01980130019005
:100AE000F8E745F21C00ADF8040001A994200222A9
:100AF000FFF712FD41F61D4801A994200222ADF82E
:100B00000480FFF709FD4CF21E0701A99420022280
:100B1000ADF80470FFF700FD002601960198A04291
:100B200003DA019801300190F8E748F21C00ADF8B3
:100B3000040001A994200222FFF7EEFC01A99420F1
:100B40000222ADF80480FFF7E7FC01A994200222FD
:100B5000ADF80470FFF7E0FC019600BF0198A842D1
:100B600003DA019801300190F8E702B0BDE8F081A6
:100B7000F1EE100A4FF6FF71C0F2C03120EA010019
:100B800040F04070E1EE100A704700009C0B000836
:0C0B90000000002060060000F0010008DA
:040000050800018965
:00000001FF
